:020000040800F2
:10000000481100209D90000825650008A790000871
:10001000276500082B6500082F6500080000000018
:100020000000000000000000000000003365000830
:100030003565000800000000B3900008376500082F
:10004000B7900008B7900008B7900008B790000874
:10005000B7900008B7900008B7900008B790000864
:10006000B7900008B7900008B7900008B790000854
:10007000B7900008B7900008B7900008B790000844
:10008000B7900008B7900008B7900008B790000834
:10009000B7900008B7900008B7900008B790000824
:1000A000B7900008B7900008B7900008B790000814
:1000B000B7900008B7900008B7900008B790000804
:1000C000B7900008B7900008B7900008B7900008F4
:1000D000B79000083F650008B79000084165000828
:1000E000B7900008B7900008B790000800F002F839
:1000F00000F03CF80AA090E8000C82448344AAF186
:100100000107DA4501D100F031F8AFF2090EBAE883
:100110000F0013F0010F18BFFB1A43F0010318473B
:10012000D8B70000F8B70000103A24BF78C878C1EB
:10013000FAD8520724BF30C830C144BF04680C60ED
:10014000704700000023002400250026103A28BF35
:1001500078C1FBD8520728BF30C148BF0B60704739
:100160001FB508F0BFFF1FBD10B510BD08F0E0FFC0
:100170001146FFF7F5FF00F009F808F0FEFF03B4A1
:10018000FFF7F2FF03BC08F0FFFF000004F0BDFB27
:10019000064803F027FB064802F03DF8054802F048
:1001A0007EFC01E003F0B0FEFCE7000052000020FE
:1001B000C0020020000600200122C272704710B564
:1001C0000446607B00B338480078401C364908700C
:1001D00008460078012804D0052809D00A2812D141
:1001E0000DE0324805F03CF9304805F041F90AE0ED
:1001F0002E4805F045F92D4805F04AF903E00020A6
:100200002949087000BF49E0607AE0B1207BD0B98D
:1002100025480078401C24490870084600780128C9
:1002200004D0142806D028280CD107E01F4805F078
:1002300017F907E01D4805F023F903E000201A49EB
:10024000087000BF2AE0607A10B3207B00B3184822
:100250000078401C1649087008460078012804D030
:10026000142809D0282812D10DE0104805F0F8F81C
:100270000E4805F00DF90AE00C4805F001F90B48AD
:1002800005F0F6F803E000200949087000BF05E01A
:10029000064805F0E5F8054805F0EAF810BD00B598
:1002A0000448FFF789FF00BD000000207400002013
:1002B00001000020CC00002070B504460E46154613
:1002C0002A4604F11001FE4805F0B8FD70BD2DE985
:1002D000F04104460D461646AA202074AA216174F6
:1002E000EF21A1740221E1742575667500270020B5
:1002F00006E004F11001095C3944CFB2411CC8B2D8
:100300000628F6DBA775082204F110012046FFF746
:10031000D3FFBDE8F0812DE9F04F85B005460C46CE
:10032000164600270020E87300BF04E0215C394432
:10033000CFB2411CC8B2711E8142F7DCA01910F87F
:10034000010CB84202D005B0BDE8F08F2078AA2891
:1003500002D16078AF2800D0F5E70021D94881723A
:10036000A078012811D12079012801D1D64908703F
:100370002079022802D10120D3494870207903282E
:1003800003D10120D04908704870A078022816D106
:100390002079012805D128716871A871E871287247
:1003A00068722079A02801D1012028702079A12825
:1003B00005D1C64801F0CAFAC54803F0FAF8A0789A
:1003C00003287CD12079617941EA0020C149C880A5
:1003D000A079E17941EA0020BE498880207A617ADB
:1003E00041EA0020BB490880A07AE17A41EA002076
:1003F000B8494880207B617B41EA0020B5490881EB
:10040000A07BE17B41EA0020B2494881207C617CED
:1004100041EA0020AF498881A07CE17C41EA0020CC
:10042000AC49C881E87B002861D008460088A0F26A
:10043000DC5908464088A0F2DC58A749886803F0D8
:1004400048FE019009F028FA834648460AF082FEE9
:10045000594602900AF0DEFE82469F49886803F002
:1004600038FE009009F0E8FD834640460AF072FE2F
:10047000594601900AF0CEFE984902900AF0F8FF22
:10048000514603900AF096FC04900AF043FE91490D
:1004900008809149886803F01CFE019009F0CCFDAA
:1004A000834648460AF056FE594602900AF0B2FECC
:1004B00082468949886803F00CFE009000E016E04F
:1004C00009F0EAF9029040460AF044FE01900299D0
:1004D0000AF0A0FE834681490AF06CFC5146039065
:1004E0000AF068FC04900AF015FE7A494880A0786A
:1004F00010287DD12179090209B2627941EA02000E
:100500000AF028FE824676490AF0C8FC6F49086066
:10051000A179090209B2E27941EA02000AF01AFE61
:1005200082466F490AF0BAFC68494860217A09029C
:1005300009B2627A41EA02000AF00CFE824668497A
:100540000AF0ACFC61498860A17A090209B2E27A3A
:1005500041EA02000AF0FEFD824661490AF09EFC73
:100560005A49C861217B090209B2627B41EA020053
:100570000AF0F0FD82465A490AF090FC534908629D
:10058000A17B090209B2E27B41EA02000AF0E2FD26
:10059000824653490AF082FC4C494862217C090298
:1005A00009B2627C41EA02000AF0D4FD82464C495D
:1005B0000AF074FC45498863A17C090209B2E27C17
:1005C00041EA02000AF0C6FD824645490AF066FC8F
:1005D0003E49C863217D090209B2627D41EA0200F9
:1005E0000AF0B8FD82463E490AF058FC374900E05F
:1005F00005E00864A1783A462846FFF768FEA0782F
:1006000011286FD12179090209B2627941EA020009
:100610000AF0A0FD824632490AF040FC2B494865A9
:10062000A179090209B2E27941EA02000AF092FDD9
:1006300082462B490AF032FC24498865217A090256
:1006400009B2627A41EA02000AF084FD8246244936
:100650000AF024FC1D49C865A17A090209B2E27AB0
:1006600041EA02000AF076FD82461D490AF016FCB6
:1006700016490867217B090209B2627B41EA020040
:100680000AF068FD824616490AF008FC0F494867DF
:10069000A17B090209B2E27B41EA02000AF05AFD9D
:1006A00082460F490AF0FAFB08498867217C090253
:1006B00009B2627C41EA02000AF04CFD824612E077
:1006C000B8070020CC0000203807002020010020BF
:1006D00052000020EC060020C00200200080BB4435
:1006E00000007A4428E0FE490AF0D8FBFD49C1F831
:1006F0008C00A17C090209B2E27C41EA02000AF006
:1007000029FD8246F6490AF0C9FBF649C1F8900076
:10071000217D090209B2627D41EA02000AF01AFD58
:100720008246EF490AF0BAFBEE49C1F89400A1787D
:100730003A462846FFF7CBFDA078122834D121791C
:10074000090209B2627941EA02000AF003FD824619
:10075000E3490AF0A3FBE349C1F8A800A179090223
:1007600009B2E27941EA02000AF0F4FC8246DC496F
:100770000AF094FBDB49C1F8AC00217A090209B206
:10078000627A41EA02000AF0E5FC8246D4490AF0A6
:1007900085FBD449C1F8B000A1783A462846FFF756
:1007A00096FDD14802F005FFA078132804D1A17866
:1007B0003A462846FFF78BFDA078142804D1A1788B
:1007C0003A462846FFF783FDA078152804D1A17882
:1007D0003A462846FFF77BFD00BFB4E510B5044656
:1007E000C24805F0A8FB10BD2DE9FC5F04460E468B
:1007F00017469846DDE90CAB0025AA2229466D1C58
:1008000004F11000425429466D1C425406F10F00B9
:10081000C2B229466D1C04F1100042540022294640
:100820006D1C4254AE4938460AF0F4FC00900AF0C0
:100830002BFC00B201909DF8052029466D1C04F1A7
:10084000100042549DF8042029466D1C4254A449CE
:1008500040460AF0DFFC00900AF016FC00B201905E
:100860009DF8052029466D1C04F1100042549DF8A6
:1008700004202846691CCDB204F110010A5498499D
:1008800050460AF0C7FC00900AF0FEFB00B201904F
:100890009DF805202846691CCDB204F110010A54C8
:1008A0009DF804202846691CCDB204F110010A54B9
:1008B0008B4958460AF0AEFC00900AF0E5FB00B206
:1008C00001909DF805202846691CCDB204F1100165
:1008D0000A549DF804202846691CCDB204F1100189
:1008E0000A547F490E980AF095FC00900AF0CCFB60
:1008F00000B201909DF805202846691CCDB204F194
:1009000010010A549DF804202846691CCDB204F158
:1009100010010A5472490F980AF07CFC00900AF00A
:10092000B3FB00B201909DF805202846691CCDB2AA
:1009300004F110010A549DF804202846691CCDB228
:1009400004F110010A54664910980AF063FC009003
:100950000AF09AFB00B201909DF805202846691C18
:10096000CDB204F110010A549DF804202846691CF8
:10097000CDB204F110010A54594911980AF04AFC09
:1009800000900AF081FB00B201909DF805202846F6
:10099000691CCDB204F110010A549DF804202846C8
:1009A000691CCDB204F110010A544D4912980AF0A5
:1009B00031FC00900AF068FB00B201909DF8052020
:1009C0002846691CCDB204F110010A549DF8042098
:1009D0002846691CCDB204F110010A54281FE074A6
:1009E0004FF00009002007E004F11001095C4944C0
:1009F00001F0FF09411CC8B2A842F5DB2846691C7A
:100A0000CDB204F1100101F800902A462046FFF70C
:100A100053FCBDE8FC9F2DE9F84304460E461746FB
:100A20000025AA2229466D1C04F1100042542946D3
:100A30006D1C4254052229466D1C42540022294651
:100A40006D1C425400969DF8012029466D1C4254AD
:100A50009DF8002029466D1C425400979DF8012006
:100A600029466D1C42549DF800202846691CCDB2D1
:100A700004F110010A54281FE0744FF00008002010
:100A800007E004F11001095C414401F0FF08411C3A
:100A9000C8B2A842F5DB2846691CCDB204F11001AA
:100AA00001F800802A462046FFF706FCBDE8F883DF
:100AB0007FB504460025AA2229466D1C04F11000CA
:100AC000425429466D1C4254062229466D1C42544C
:100AD000002229466D1C42549DF80520294607E056
:100AE00000007A442001002052000020B8070020B6
:100AF0006D1C42549DF8042029466D1C42549DF8FB
:100B0000092029466D1C42549DF808202846691C7E
:100B1000CDB204F110010A549DF80D202846691C3D
:100B2000CDB204F110010A549DF80C202846691C2E
:100B3000CDB204F110010A549DF821202846691C09
:100B4000CDB204F110010A549DF820202846691CFA
:100B5000CDB204F110010A549DF825202846691CE5
:100B6000CDB204F110010A549DF824202846691CD6
:100B7000CDB204F110010A549DF829202846691CC1
:100B8000CDB204F110010A549DF828202846691CB2
:100B9000CDB204F110010A549DF82D202846691C9D
:100BA000CDB204F110010A549DF82C202846691C8E
:100BB000CDB204F110010A549DF831202846691C79
:100BC000CDB204F110010A549DF830202846691C6A
:100BD000CDB204F110010A54281FE0740026002051
:100BE00006E004F11001095C3144CEB2411CC8B2E8
:100BF000A842F6DB2846691CCDB204F110010E5460
:100C00002A462046FFF758FB7FBD7FB504460025E6
:100C1000AA2229466D1C04F11000425429466D1C7D
:100C20004254032229466D1C4254002229466D1C61
:100C300042549DF8052029466D1C42549DF804201D
:100C400029466D1C42549DF8092029466D1C4254CA
:100C50009DF808202846691CCDB204F110010A5401
:100C60009DF80D202846691CCDB204F110010A54EC
:100C70009DF80C202846691CCDB204F110010A54DD
:100C80009DF821202846691CCDB204F110010A54B8
:100C90009DF820202846691CCDB204F110010A54A9
:100CA0009DF825202846691CCDB204F110010A5494
:100CB0009DF824202846691CCDB204F110010A5485
:100CC0009DF829202846691CCDB204F110010A5470
:100CD0009DF828202846691CCDB204F110010A5461
:100CE0009DF82D202846691CCDB204F110010A544C
:100CF0009DF82C202846691CCDB204F110010A543D
:100D00009DF831202846691CCDB204F110010A5427
:100D10009DF830202846691CCDB204F110010A5418
:100D20009DF835202846691CCDB204F110010A5403
:100D30009DF834202846691CCDB204F110010A54F4
:100D40009DF839202846691CCDB204F110010A54DF
:100D50009DF838202846691CCDB204F110010A54D0
:100D6000281FE0740026002006E004F11001095C51
:100D70003144CEB2411CC8B2A842F6DB2846691CF9
:100D8000CDB204F110010E542A462046FFF794FA22
:100D90007FBD2DE9F84304460E4617460025AA22DA
:100DA00029466D1C04F11000425429466D1C425422
:100DB000072229466D1C4254002229466D1C4254CC
:100DC00000969DF8032029466D1C42549DF8022090
:100DD00029466D1C42549DF8012029466D1C425441
:100DE0009DF800202846691CCDB204F110010A5478
:100DF00000979DF801202846691CCDB204F110012E
:100E00000A549DF800202846691CCDB204F1100157
:100E10000A54281FE0744FF00008002007E004F196
:100E20001001095C414401F0FF08411CC8B2A8420E
:100E3000F5DB2846691CCDB204F1100101F80080F1
:100E40002A462046FFF738FABDE8F8832DE9F84F27
:100E500004460E4617469846DDE90AAB0025AA224D
:100E600029466D1C04F11000425429466D1C425461
:100E7000022229466D1C4254002229466D1C425410
:100E800000969DF8012029466D1C42549DF80020D3
:100E900029466D1C425400979DF8012029466D1C7F
:100EA00042549DF800202846691CCDB204F110017F
:100EB0000A54CDF800809DF801202846691CCDB267
:100EC00004F110010A549DF800202846691CCDB297
:100ED00004F110010A54CDF800A09DF80120284625
:100EE000691CCDB204F110010A549DF80020284677
:100EF000691CCDB204F110010A54CDF800B09DF880
:100F000001202846691CCDB204F110010A549DF855
:100F100000202846691CCDB204F110010A540C9837
:100F200000909DF801202846691CCDB204F1100103
:100F30000A549DF800202846691CCDB204F1100126
:100F40000A540D9800909DF801202846691CCDB2E6
:100F500004F110010A549DF800202846691CCDB206
:100F600004F110010A540E9800909DF801202846C3
:100F7000691CCDB204F110010A549DF800202846E6
:100F8000691CCDB204F110010A540F9800909DF82D
:100F900001202846691CCDB204F110010A549DF8C5
:100FA00000202846691CCDB204F110010A54281F04
:100FB000E0744FF00009002007E004F11001095C23
:100FC000494401F0FF09411CC8B2A842F5DB28469C
:100FD000691CCDB204F1100101F800902A462046A8
:100FE000FFF76AF9BDE8F88F2DE9FE4F04460E467B
:100FF00017469846DDE90CAB0025CDF804A0AA22DF
:1010000029466D1C04F11000425429466D1C4254BF
:10101000012229466D1C4254002229466D1C42546F
:10102000FB4930460AF0F6F800900AF02DF800B2BD
:1010300002909DF8092029466D1C04F110004254CD
:101040009DF8082029466D1C4254F14938460AF0A3
:10105000E1F800900AF018F800B202909DF809201B
:1010600029466D1C04F1100042549DF808202846C2
:10107000691CCDB204F110010A54E54940460AF05A
:10108000C9F800900AF000F800B202909DF809201B
:101090002846691CCDB204F110010A549DF80820BD
:1010A0002846691CCDB204F110010A549DF80720AE
:1010B0002846691CCDB204F110010A549DF806209F
:1010C0002846691CCDB204F110010A549DF8052090
:1010D0002846691CCDB204F110010A549DF8042081
:1010E0002846691CCDB204F110010A542846691C37
:1010F000CDB204F1100101F800B029466A1CD5B246
:1011000004F110020E985054281FE0744FF00009AB
:10111000002007E004F11001095C494401F0FF09D7
:10112000411CC8B2A842F5DB2846691CCDB204F1C7
:10113000100101F800902A462046FFF7BDF8BDE8EF
:10114000FE8F2DE9FF4104460E460025AA222946BE
:101150006D1C04F11000425429466D1C42540022BB
:1011600029466D1C425429466D1C425429466D1C6B
:1011700046549DF8092029466D1C42549DF80820CC
:1011800029466D1C42549DF80D202846691CCDB29D
:1011900004F110010A549DF80C202846691CCDB2B8
:1011A00004F110010A549DF829202846691CCDB28B
:1011B00004F110010A549DF828202846691CCDB27C
:1011C00004F110010A549DF82D202846691CCDB267
:1011D00004F110010A549DF82C202846691CCDB258
:1011E00004F110010A54281FE0740027002006E0D3
:1011F00004F11001095C3944CFB2411CC8B2A842C5
:10120000F6DB2846691CCDB204F110010F542A46C2
:101210002046FFF751F8BDE8FF812DE9F04F89B076
:1012200004467C4800787C49097890FBF1F201FB88
:10123000120179480078401E814201D10120A0703E
:10124000744800787549097890FBF1F201FB1201AE
:1012500072480078401E814201D10120E0706D4843
:1012600000786F49097890FBF1F201FB12016C489C
:101270000078401E814201D10120607365480078EA
:101280006849097890FBF1F201FB1201654800788A
:10129000401E814201D1012060705E4800786249A1
:1012A000097890FBF1F201FB12015F480078401EC3
:1012B000814201D10120A072564800785B4909782B
:1012C00090FBF1F201FB120158480078401E814268
:1012D00001D1012020734F4800785549097890FBCF
:1012E000F1F201FB120152480078401E814201D107
:1012F0000120A07347480078401C464908702078B8
:1013000068B1002020704FF4C8716E234FF49672BC
:10131000CDE9001001212046FFF713FF53E160786B
:10132000A0B1002060704349086B09F0ADFE05468E
:101330004148417A007BCDE9005002913F488368E3
:10134000426801682046FFF74FFE3CE1607B10B128
:101350000020607337E1A078002841D00020A07001
:101360003649886E09F090FE05B23449486E09F09E
:101370008BFE06B23149086E09F086FE07B22F498E
:10138000886B09F081FE0FFA80F82C49486B09F050
:101390007BFE0FFA80F92949086B09F075FE0FFAF8
:1013A00080FA2649086D09F06FFE0FFA80FB234989
:1013B000C86C09F069FE00B220490890886C09F0F9
:1013C00063FE00B25B46CDE900A9CDE90287CDE915
:1013D0000465079001462046089AFFF737FDF2E0C2
:1013E000E078A0B10020E0701248806800EBC003F4
:1013F00003EB00104FF6FF7303EA80020D484068CC
:10140000642300FB03F12046FFF7C3FCDBE017E099
:101410000000C84202000020030000200900002054
:101420000400002005000020060000200700002026
:101430000800002000060020CC000020C002002090
:10144000A07AF0B10020A0726C48408A6B49098AEA
:101450006A4AD289694B9B89CDE90332CDE90510EF
:101460006648408965490989644A5288CDE9002166
:101470000290624803888288C1882046FFF7C5FB36
:10148000A1E0207B80B30020207306A95C4801F016
:101490005FFA00200AE006A931F81010A1F57A7170
:1014A00009B206AA22F81010411CC8B20628F2DBC5
:1014B0000022BDF8220080B2BDF8201089B2CDE92B
:1014C000020204920191BDF81E0080B20090BDF8A6
:1014D0001C0083B2BDF81A0082B2BDF8180081B2B8
:1014E0002046FFF7E5FA6EE0FFE7A07B80B1002021
:1014F000A07344494448006809F08CFE064609F090
:1015000009FE85B2002229462046FFF784FA5AE0F8
:101510002079F0B1002020713C48006C3B49C96B38
:101520003A4A926B394B5B6ACDE90332CDE905103B
:101530003648006A3549C969344A9268CDE90021C4
:10154000029032484368012102682046FFF74CF9B7
:1015500039E06079F0B1002060712C48D0F8941027
:10156000D0F89020D0F88C00284B9B6FCDE9033049
:10157000CDE905212548416F006F244AD26DCDE9A0
:10158000002002912148836D0221426D2046FFF721
:101590002BF918E0A079B0B10020A071039004905D
:1015A00005900146024606901848D0F8B000CDE9F3
:1015B000012100901548D0F8AC300321D0F8A820C4
:1015C0002046FFF711F909B0BDE8F08F10490978FE
:1015D0001E290CDD00210E4A11700E49897A19B9B5
:1015E00001220C498A7202E000220A494A72084923
:1015F0000978491C064A117070470000EC0600206B
:10160000F40500200000C8426800002020010020EE
:101610000A000020CC0000202DE9F04781460C464E
:1016200015462946C34809F0F5FD804641464FF06E
:101630007E5009F033FC0746214609F0BBFB064605
:101640003146204609F02AFCBDE8F0872DE9F84F25
:101650000F4615461C462946B64809F0DBFD814673
:10166000394609F0D7FD804641464FF07E5009F0DB
:1016700015FC06463146B04809F0CCFD824631469D
:10168000304609F0C7FD8346514609F093FB814679
:101690004FF07E5109F08EFB804641464FF07E5060
:1016A00009F0FCFB20603146A34809F0B3FD8346F6
:1016B0003146304609F0AEFD5946009009F07AFBFC
:1016C00082464FF07E5109F075FB804631469A48BC
:1016D00009F0A0FD314600904FF0804009F09AFDDE
:1016E0008346314609F096FD8246009909F062FB77
:1016F0008146414609F0D2FB606031468E4809F0D0
:1017000089FD83463146304609F084FD59460090F4
:1017100009F050FB81464FF07E5109F04BFB8046AB
:101720003146304609F076FD8246414609F0B6FB67
:10173000A060BDE8F88F2DE9F04107460D4614463C
:101740002146284609F036FB06463146204609F078
:10175000A5FBBDE8F0810FB4F0B58DB005460F468E
:101760001A9C224617A904A808F020FF04A807C85D
:1017700007AB07C321464FF07E5009F00BFF06462A
:10178000324614A901A808F011FF01A807C80AAB46
:1017900007C307AA0AA9284608F024FF0DB0F0BC29
:1017A0005DF814FB0FB470B59EB005460E461446A6
:1017B0000FA8002181604160016000BF04F10C01AD
:1017C0000CA8A26808F0F2FE0CA807C812AB07C369
:1017D00004F1180109A8626808F0E8FE09A807C822
:1017E00015AB07C325A906A8226808F0DFFE06A8E6
:1017F00007C818AB07C315AA18A903A808F0F2FE7A
:1018000003A807C81BAB07C312AA1BA9684608F0A8
:1018100095FE9DE807000FAB07C3D4E90712A06946
:10182000C4E90412E0600FA807C8C4E90712A06168
:101830000FA807C885E807001EB070BC5DF814FB50
:101840002DE9F05F83460C4615463C48A1680068C8
:1018500009F0E0FC80463A486168006809F0DAFC6B
:1018600081462846216809F0D5FC8246494609F0A0
:10187000A1FA0746414609F08DFE06463048006849
:101880002E4908602E480660304609F0FDFBBDE891
:10189000F09F2DE9F05F83460C4615462948A16864
:1018A000006809F0B7FC804627486168006809F0C5
:1018B000B1FC81462846216809F0ACFC82464946C5
:1018C00009F078FA0746414609F064FE06461E48CC
:1018D00000681C4908601C480660304609F0D4FBCB
:1018E000BDE8F09F0FB4F0B58DB005460F461A9CC9
:1018F00021464FF07E5009F04DFE0646324617A9AC
:1019000004A808F053FE04A807C807AB07C3224683
:1019100014A901A808F04AFE01A807C80AAB07C32A
:1019200007AA0AA9284608F05DFE0DB0F0BC5DF8D4
:1019300014FB0000DB0FC9400000404010000020F5
:101940000C000020180000201400002038B50446C8
:10195000FD48FE4BFE4A11460090204607F057FC1A
:10196000F948FA4BFA4A1146009004F11C0007F0BE
:101970004EFCF5480023F74AF749009004F138007F
:1019800007F045FC002003460246F449009004F1AC
:10199000540007F03CFC0020034602464FF0804113
:1019A000009004F1700007F032FCED48ED4B4FF071
:1019B0007C52ED49009004F18C0007F028FCE248CD
:1019C00000231A46E949009004F1A80007F01FFC23
:1019D00038BD10B5044607231C22E549204607F010
:1019E0003DFC044607230C22E24904F1C40007F041
:1019F00035FCA0F1C40404F58C7008F004FDA0F5DA
:101A00008C7404F5A17008F0FEFCA0F5A17404F537
:101A1000C47008F0F8FCA0F5C474962004F5AE7408
:101A20002077322060771E206086D3482061606175
:101A3000002044F8040C20606060E0604FF4FA700D
:101A4000A060A4F5AE742046FFF780FF012084F863
:101A500040010020C4F8240100214FF4947001518A
:101A6000204610BD10B50446C449086B09F00CFBB4
:101A7000C4F84C0110BD2DE9F04F89B004464FF079
:101A80008142BF4904A808F03DFDBE49B1F91400E8
:101A9000192102F0E3FA00B2BA498882B1F91600BE
:101AA000192102F0DBFA01B2B648C1820146B1F950
:101AB0001800192102F0D2FA01B2B2480183B248EB
:101AC000407A30B90020C4F8240100214FF494700A
:101AD0000151D4F86801012848D0A9493C39086867
:101AE000AA4909F097FBA7490290B1F9140008F040
:101AF000E6FE07460022A64B08F048FF054608F020
:101B0000AFFE96225142009002F09DFA834609F002
:101B100021FB0190029909F03DFD039009F0B4FA10
:101B2000079097493C394868984909F073FB9549F3
:101B30000390B1F9160008F0C2FE07460022944B4C
:101B400008F024FF054608F08BFE962251420090D3
:101B500002F079FA019009F0FDFA0290039909F078
:101B600019FD834609F090FA08906AE0D4F8241130
:101B7000084609F04FFB80464FF4947211591059F2
:101B800009F048FB8346414609F014F9054628460A
:101B900008F018FB06467F4909F080F907463846E9
:101BA00009F0DCF805467C4A7C4B08F0B3FE00D215
:101BB000694FD4F8240180F000453946284609F0E1
:101BC0006DF981464FF49470005980F00045394614
:101BD000284609F063F9824669493C3908686B492F
:101BE00009F018FB0390484609F04EFA8346642238
:101BF000514202F028FA804609F0ACFA06460399F1
:101C000009F0C8FC054609F03FFA07905C493C39E9
:101C100048685E4909F0FEFA8346504609F034FAF6
:101C200064225142039002F00EFA804609F092FAC3
:101C30000646594609F0AEFC054609F025FA08901B
:101C400000BFD4F8680118BB4E49B1F9140009F07F
:101C500081FA0646524909F0DDFA0546D4F8241106
:101C600009F0A8F8C4F824014649B1F9160009F0B2
:101C700071FA06464A4909F0CDFA05464FF49470C8
:101C80000159284609F096F84FF49471085118E06C
:101C90003449484609F0BEFA0546D4F8241109F043
:101CA00089F8C4F824012F49504609F0B3FA0546D3
:101CB0004FF494700159284609F07CF84FF4947160
:101CC00008514FF4947000592D493C3908662C484E
:101CD0003C38D4F8241141660221079802F0BEF97D
:101CE00007900221089802F0B9F9089004F1540015
:101CF000079901F03DFE074609F02CFA06460499C3
:101D000009F048FC054609F0BFF9C4F87C0104F16C
:101D10005400089901F02CFE074609F01BFA06460C
:101D2000059909F037FC054609F0AEF94FF4C0718A
:101D3000085194F87911134AB2F918205143481107
:101D400009F008FA06462DE0000048430AD7A33CF4
:101D50009A99193E6666E63ECDCC4C3F0000A04005
:101D6000000016436F12033B9A99B93F9A99993F25
:101D70001D920008A5A3000800209C440006002036
:101D8000FC020020EC060020CC00002000002041D6
:101D90000000F83F0000C8429A9999999999E93F43
:101DA0006F12833B069909F0F5FB054609F06CF9C3
:101DB0004FF4C271085109B0BDE8F08F2DE9FF4121
:101DC0000446BE48007800F0010078B9BB4807F02F
:101DD00057FA58B1BA4800210A464FF08B430160C8
:101DE0004260836000BFB548AFF30080B549B44896
:101DF00008F064FB0746002109F0D8FA04D2B14983
:101E0000AF4808F05BFB05E0AE49AD4808F056FB73
:101E100080F000400546AC4A002102F0DAF80646A0
:101E200000251BE0A948C08840F2E241884205DA5B
:101E3000C5EBC50104EB810001F0D4FD04F5BE72D1
:101E400052F82510C5EBC50204EB8200A04A01F050
:101E50009FFD01A941F82500681CC5B2032DE1DBF7
:101E60009A4BB3F91830002B03DD984BB3F91830B7
:101E700003E0964BB3F918305B4203F59672934B2F
:101E8000B3F91830002B03DD904BB3F9183003E0A1
:101E90008E4BB3F918305B428E4DE91A039802F06D
:101EA000D2F840420390D4F8540100281FDDD4F842
:101EB0005C0101281BD1D4F85801012817D1D4F8AE
:101EC0005401401EC4F85401D4F854010A2808DC17
:101ED0000020C4F85C01C4F854017F488068C4F84D
:101EE00064017E48C4F87001C4F86C014EE0D4F877
:101EF0006001012806D0D4F85C0150B9D4F858012B
:101F0000012806D1D4F87401C4F87001C4F86C013A
:101F10003CE0D4F86001022807D0D4F85801022828
:101F200003D0D4F86801022826D166491839086D13
:101F30006B4909F03BF90DD26A49D4F8700109F0F8
:101F400035F907D26849D4F86C0108F033FFC4F8BA
:101F500070010CE06549D4F8700109F027FA06D247
:101F60006349D4F86C0109F015FBC4F87001D4F88A
:101F70007001C4F86C0109E05449B1F91A10481E07
:101F800009F0E8F8C4F87001C4F86C015948007B06
:101F9000A8B9D4F8600190B9304607F07DFC074637
:101FA0005549D4F8700109F0F5FA8046394608F031
:101FB00075FF0546504908F0FDFEC4F87001D4F8DD
:101FC000700109F061F807464FF4E1624FF47A714D
:101FD00002F039F8054609F0BDF8C4F87001D4F8EC
:101FE000700109F097F885B203980090294643489C
:101FF000DDE9012300F058FBBDE8FF8110B5044680
:10200000D4F8580120B1D4F86401C4F84C0106E0BA
:102010002E48B0F91A00A0F59670C4F84C0104F5EA
:10202000A67440F2DC524FF42F71206802F00BF8D6
:102030002060294920688968401A6060B4F942101C
:10204000606802F00BF860604FF416722149C839DD
:10205000606801F0F8FF60606168A4F5A67404F19F
:10206000A80001F085FC1C49B1F90210401AC4F81F
:10207000480110BD70B50446D4F8600118B904F1E8
:102080008C0001F0AFFC1E4A04F18C00D4F848111A
:1020900001F07EFC05464FF4E1624FF4AF6105F5B7
:1020A0007A7001F0D0FF064609F054F8C4F87401C4
:1020B00070BD10B51348FFF78CFC10BD1C0000204C
:1020C000B0020020D8020020C3B8B23EEC060020C7
:1020D0006F12033BD4FEFFFF000600200000C8443F
:1020E00000A075450000E1440000A04000009644B7
:1020F0000000E040CC00002000007A44F4050020FD
:102100000AD7A33C2001002010B50446204600BF9A
:102110000446204608F046F9044604F10C0008F095
:1021200041F9A0F10C0404F1180008F03BF9A0F10A
:10213000180404F1240008F035F9A0F1240404F196
:10214000300008F02FF9A0F1300404F13C0008F051
:1021500029F9A0F13C0404F1480008F023F9A0F1AA
:10216000480404F1540008F01DF9A0F1540404F1EE
:10217000600008F017F9A0F1600404F16C0007F0AA
:102180000AF8A0F16C0404F1900007F004F8A0F143
:10219000900404F1B80007F00DF8A0F1B80404F5BC
:1021A000E07007F007F8A0F5E07404F533704FF025
:1021B0007E5101600021C1608160416000BFA0F5D7
:1021C0003374204610BD10B5044662224FF47A7174
:1021D000FE4803F09BF910BD10B50446FC4AFD49CA
:1021E0002046FFF719FAFC49086004F16C03F84A2D
:1021F000F8492046FFF72AFA04F19003F74AF54917
:102200002046FFF723FAF64AF2492046FFF793FAF1
:10221000F149486010BD10B504462046FFF7DCFFC9
:102220002046FFF7D0FF00231A464FF08B4104F100
:102230000C0008F0BCF84FF08B430022114604F16B
:10224000180008F0B4F810BD3EB50446DF4803F0AE
:102250002FFADE4803F0FFFADC49684603F05FFB23
:102260009DE80700C4E90D122063D849684603F0D1
:102270004FFB9DE80700C4E91312A0643EBD7FB583
:102280008CB00446179DD748007800F0010048B98B
:10229000D44806F0F5FF28B1D34808F083F8D148B8
:1022A000AFF30080D148007800F0010048B9CF4872
:1022B00006F0E6FF28B1CE4808F074F8CB48AFF33B
:1022C0000080CC48007800F0010048B9C94806F009
:1022D000D7FF28B1C84808F065F8C648AFF30080BA
:1022E000C648007800F0010048B9C44806F0C8FFAD
:1022F00028B1C34808F056F8C048AFF30080C14881
:10230000007800F0010048B9BE4806F0B9FF28B1D6
:10231000BD4807F0F1FFBB48AFF3008029464FF0FE
:102320007C5008F077FF06460DAAB54906A808F0CC
:1023300059F906A807C809AB07C3324609A903A87B
:1023400008F034F9AC4803A90EC90EC0AC480DA979
:102350000EC90EC0A849AC4807F04AFF04F11802A4
:10236000A94906A808F058F806A807C8C4E9071242
:10237000A06104F10C02A44906A808F04DF806A8D3
:1023800007C8C4E90412E060D4F8DC021E2818DD96
:10239000D4F8DC02962814DA8F484068049014A818
:1023A00007C801AB07C3206A0090214606A8D4E9FC
:1023B0000623FFF797FA06A807C8C4E90712A06129
:1023C00026E09249169808F0F1FF21D28248407A1F
:1023D000F0B18F48D0F85C01012819D18C48D0F8B1
:1023E0005801012814D18B49169808F057FD06466C
:1023F00008F04AFE8649C1F854014FF4E162D1F871
:1024000054014FF0FF3101F01EFE8149C1F8540123
:10241000214604F1180007F08BFF214604F10C005F
:1024200007F0B0FF10B070BD2DE9F04782460C46B2
:1024300079490968601A08F059FA0746774A784BD3
:1024400008F0A4FA054608F025F9814672480460B0
:102450004846BDE8F0872DE9F04395B004460EA844
:1024600007F05EFF08A807F05BFFD4E91301CDE990
:10247000000104F16C02214605A8A36CFFF792F954
:1024800005A807C8C4E916126065D4E90D01CDE9B5
:10249000000104F19002214605A8236BFFF782F9A1
:1024A00005A807C8C4E91012E06304F154052946E1
:1024B000284608F05FF881465A4908F0ABFE80468E
:1024C0004FF0974108F0EAFC074608F0DDFDC4F83C
:1024D000DC0202F0E5F9054629462046FFF7A4FF95
:1024E0000646606C0090394905A8D4E90F2303F033
:1024F0001DFA0396D4E91612606D8DE80700204698
:1025000005A90EC9FFF7BBFE15B0BDE8F0832DE9A4
:10251000F0418CB005460C4603A807F0EDFE684676
:1025200007F040FFA06801F0D4FD8046606801F02C
:10253000D0FD80F00046206801F0CBFD80F0004720
:10254000434632463946684607F031FF694603A8DC
:1025500007F04EFE04F1540203A9284607F05CFF81
:102560000CB0BDE8F081FFB595B00446219E09A8E6
:1025700007F018FF06A807F015FF1EAD284607F064
:10258000BAFF07463946284607F015FF00BF09A9DC
:1025900004F5337001F0CEFE09AA1EA903A808F0C5
:1025A0003DF803A807C806AB07C31F4A06A903A83E
:1025B00007F0FCFF03A807C812AB07C312A904F178
:1025C000240007F00CFF4FF080422FE03807002076
:1025D000000048426F12033BCC0000200000024381
:1025E0006666E63F34000020A00500203000002091
:1025F000AC0500202C000020B80500202800002099
:10260000C405002024000020D00500200080BB4528
:10261000200100200000C040200000208DEDB5A06A
:10262000F7C6B03E0000C8426F12833A06A903A85D
:1026300007F0BCFF03A807C80CAB07C304F12402D2
:102640000CA9684607F0CEFF9DE807000FAB07C353
:102650000FA916A807F0C3FE324616A904F5337079
:1026600001F0D9FE04F5337001F0AAFD04F108036E
:10267000221D214604F5337002F05FF819B0F0BD59
:1026800010B50248FFF740FD10BD0000C002002059
:102690000146002005E04FF47A7221F81020421C18
:1026A000D0B20628F7DB70472DE9F04F8FB0044613
:1026B0000D4616469B46DDF86090484608F0FFF848
:1026C000CDE90A01584608F0FAF80746A74AA84B90
:1026D00008F05CF9CDE90601304608F0F0F8002278
:1026E000A44BCDE9000108F051F907468846284679
:1026F00008F0FCF83A464346CDE9020108F044FAF6
:10270000CDE90401DDE9062307F0F6FFCDE9080174
:10271000DDE90A2307F0F0FFCDE90C0108F0A0F88D
:1027200000B2A080484608F0CAF8CDE90A01584630
:1027300008F0C5F807468D4A8D4B08F027F9CDE91A
:102740000601304608F0BBF807460022894B08F026
:102750001DF9CDE90201284608F0C8F8CDE90001CD
:10276000DDE9022308F010FACDE90401DDE90623D2
:1027700008F00AFACDE90801DDE90A2307F0BCFFF9
:10278000CDE90C0108F06CF800B26080484608F012
:1027900096F8CDE90A01584608F091F80746734AC1
:1027A000734B08F0F3F8CDE90601304608F087F8DE
:1027B0000022704BCDE9000108F0E8F80746884692
:1027C000284608F093F83A464346CDE9020107F05F
:1027D00093FFCDE90401DDE9062307F08DFFCDE984
:1027E0000801DDE90A2308F0CFF9CDE90C0108F072
:1027F00037F800B22080484608F061F8CDE90A01B8
:10280000584608F05CF80746584A594B08F0BEF89D
:10281000CDE90601304608F052F807460022554B34
:1028200008F0B4F8CDE90201284608F05FF8CDE9D8
:102830000001DDE9022307F05FFFCDE90401DDE9D6
:10284000062308F0A1F9CDE90801DDE90A2308F023
:102850009BF9CDE90C0108F003F800B2E080A81B59
:10286000A0EB090000B26081A819484400B22081A1
:10287000B4F900A0012007E034F91010514501DD42
:1028800034F910A0411CC8B20628F5DB002719E076
:1028900040F26C70824507DD34F81710AAF26C70B4
:1028A000081A00B224F8170034F8171088B240F262
:1028B0006C7240F24C4101F0BBFB00B224F81700EF
:1028C000781CC7B2062FE3DB2B48407A10B92046AC
:1028D000FFF7DEFE2848007B48B92849D1F86C0193
:1028E000274908F063FC02D22046FFF7D1FE2549B4
:1028F0000868002108F05AFD02D22248006803E06F
:102900002048006880F0004007461F4908F04EFD4F
:1029100011D31C494868002108F048FD02D219482B
:10292000406803E01748406880F0004007461649B9
:1029300008F03CFD05D200210F4841722046FFF708
:10294000A7FE2146114803F0E0FB0FB0BDE8F08F71
:1029500002880A8042884A8082888A80C288CA8027
:1029600002890A8142894A817047000083C0CAA156
:1029700045B6EB3F0000E03FCC00002020010020E6
:1029800000409C44C0020020000070429B000020D8
:1029900010B50446204600BF044604F1100007F0BD
:1029A00001FDA0F1100404F11C0007F0FBFCA0F1F4
:1029B0001C0404F1280007F0F5FCA0F1280404F140
:1029C000340007F0EFFCA0F1340404F1400007F0FC
:1029D000E9FCA0F1400404F1500006F0DCFBA0F19A
:1029E000500404F1740006F0D6FBA0F1740404F165
:1029F000B40007F0D7FCA0F1B40404F1C00007F064
:102A0000D1FCA0F1C00404F1CC0007F0CBFCA0F194
:102A1000CC04FE4BFE4A194604F1B40007F0C7FC93
:102A2000FC4BFD4A194604F1C00007F0C0FC00232E
:102A30001A46194604F1CC0007F0B9FCF74898345F
:102A4000A0614FF480202064F54844F89809F549C6
:102A50009C200151F449A0200151F449A4200151C6
:102A6000F349A8200151F349AC200151204610BD83
:102A700010B50446F04802F0D1FF10BD10B5044671
:102A800004F15003ED4AEE492046FEF7DFFD04F164
:102A90007403EC4AEA492046FEF7D8FD10BD10B594
:102AA00004462046FFF7EAFF2046FFF7E1FF10BD8E
:102AB00001B5AEB017A807F075FC14A807F072FCBA
:102AC000E14800680A2803D0E048007802287DD158
:102AD0000020DE4908705521DC4803F0BBFC0020D3
:102AE000D949086001F0DCFED9490968401A0F9005
:102AF00007F0FCFED74AD84BCDE9100107F046FF9E
:102B0000CDE9120107F0C6FD1A9001F0C9FED049C7
:102B100008602E98C068129008F01CFB02461390C3
:102B20002E9974312E98FEF7B4FE2E9988602E9857
:102B30008068CA490968401A119008F023FB129076
:102B40001A9908F0ABF9139008F09EFA01B22E988A
:102B500041802E988068C14908602E98B0F9020023
:102B60004FF4FA525142139001F06DFA01B22E98CF
:102B700041802E98B0F902006421139001F06EFAA2
:102B800001B22E9841802E98C068B44909688842E5
:102B900005D1B3480078401CB149087002E000211B
:102BA000AF4801702E98C068AC4908602E988068C4
:102BB00000280FDD2E988068B0F57A7F0ADAA848E1
:102BC00000781E2806DA01212E9800E006E080F841
:102BD000E81003E000212E9880F8E8109A48006879
:102BE000401C994908609F480068052803D1924815
:102BF00003F029F80DE29B4800680A28FAD101F099
:102C00004FFE99490968401A0F9007F06FFE914AEC
:102C1000914BCDE9100107F0B9FECDE9120107F0A3
:102C200039FD1A9001F03CFE8F49086000218D4863
:102C30000160814803F007F87F4803F020F8129004
:102C400008F088FA024613902E9950312E98FEF71C
:102C5000F7FD2E9948602E984168D0F8DC00081ADC
:102C6000119008F077FA12901A9908F017F913905A
:102C700008F00AFA01B22E9801802E984168C0F837
:102C8000DC102E98B0F900004FF4487251421390B6
:102C900001F0D9F901B22E9801802E98B0F9000008
:102CA0000A21139001F0DAF901B22E9801802E98D2
:102CB00090F8E80000287DD02E98B0F9020011901D
:102CC00008F048FA12902E98406A01461190129826
:102CD00008F060FC1390169801461290139808F0C3
:102CE00069F816902E98D0F8A000014608904FF091
:102CF0007E5008F04FFC099008F030F8CDE90C0147
:102D00002E98B0F90200079007F0D9FD574A584BAA
:102D1000CDE9080107F03AFECDE90A01DDE90C230F
:102D200007F034FECDE910012E98D0F8A0000C90E9
:102D30002E98406A0B900C9908F06CFA0D9008F0F0
:102D40000DF8CDE90E01DDE9102307F0D5FCCDE942
:102D5000120107F09FFC01462E9841622E98D0F890
:102D6000AC00014608904FF07E5008F013FC09902B
:102D700007F0F4FFCDE90C012E988068079007F06A
:102D80009EFD3A4A3A4BCDE9080107F0FFFDCDE937
:102D90000A01DDE90C2307F0F9FDCDE910012E98B9
:102DA000D0F8AC000C902E98006B0B900C9908F0AA
:102DB00031FA00E07FE00D9007F0D0FFCDE90E0181
:102DC000DDE9102307F098FCCDE9120107F062FC61
:102DD00001462E9801632E984068039007F06FFD1E
:102DE000CDE906012E988068019007F068FD1F4A22
:102DF0001F4BCDE9020107F0C9FDCDE90401DDE972
:102E0000062307F0C1FECDE9080133E000002041B0
:102E100000004041E02D103B99BB163BFFCF743EB4
:102E2000CDCC4C3F52B87E3FA4707D3F0AD7A33B28
:102E3000F6287C3F3333733F900700200000A0400A
:102E40000AD7A33C000048423C0000209C00002020
:102E5000480000208DEDB5A0F7C6B03E4C00002024
:102E60005000002038000020440000209A999999D1
:102E70009999B93F07F00EFC0B9007F06FFFFD4AE0
:102E8000FD4BCDE90C0107F081FDCDE910012E9835
:102E9000D0F8E4000D9007F012FDCDE90E01DDE958
:102EA000102307F029FCCDE9120107F0D9FC2E9977
:102EB000C1F8E400ADE02E98B0F90000119008F0E0
:102EC00049F912902E98406A01461190129808F024
:102ED00061FB1390169801461290139807F06AFF51
:102EE00016902E98D0F8A400119016981090119971
:102EF00008F090F913902E98D0F89C0001460D90A0
:102F00004FF07E5008F046FB0F902E98B0F900006D
:102F10000D9008F01FF90E900F9908F07BF91190B1
:102F20002E98D0F89C000F902E98406A0E900F9922
:102F300008F070F91090119907F03CFF1290139966
:102F400007F038FF01462E9841622E98D0F8A8006D
:102F500001460F904FF07E5008F01CFB11902E9808
:102F60004168D0F8E40008440F9008F0F3F810909E
:102F7000119908F04FF913902E98D0F8A8001190ED
:102F80002E98006B1090119908F044F91290139943
:102F900007F010FF01462E9801632E9840681090AC
:102FA00008F0D8F811902E98006B014610901198F7
:102FB00008F0F0FA0021129008F0F8F90DD22E98DE
:102FC0004068119008F0C6F812902E98006B0146E8
:102FD0001190129808F0DEFA0EE02E9840681190D9
:102FE00008F0B8F812902E98006B014611901298D4
:102FF00008F0D0FA80F00040A049139008F0D6F90C
:1030000007D22E984068139008F0A4F801462E9835
:1030100001639B480068401C9949086001F040FC2E
:1030200098490968401A0F9007F060FC964A974B40
:10303000CDE9100107F0AAFCCDE9120107F02AFB47
:103040001A9001F02DFC8F490860914911A8FFF7F3
:103050005EFA11A807C817AB07C38E48407A08BBB1
:103060002E98D0F8D800C117139000EB9160811111
:103070002E98D0F8D800411A2E98C0F8D8102E9863
:10308000D0F8D800119008F065F812901998014610
:103090001190129807F08EFE139007F0F5FF2E990D
:1030A000C1F8D8002E98D0F8D800C117139000EBC3
:1030B00091608011119008F04DF812901998014616
:1030C0001190129808F0D4F919902E98D0F8B40005
:1030D0000F9007F0D9FF119017980F9007F0D4FFC9
:1030E0001090119900F0BAFF129008F033F8139085
:1030F0002E98D0F8B00001461290139808F08AF884
:103100002E9908612E98D0F8B8000F9007F0BCFFF8
:10311000119018980F9007F0B7FF1090119900F0D8
:103120009DFF129008F016F880F0004013902E9842
:10313000D0F8B00001461290139808F06BF80146E1
:103140002E9841612E98D0F8BC000F9007F09CFF9C
:10315000119019980F9007F097FF1090119900F0B7
:103160007DFF129007F0F6FF13902E98D0F8B00074
:1031700001461290139808F04DF801462E9881618F
:103180002E9A40322E991C3111A807F02BFA11A863
:1031900007C824AB07C324A90EA81A9A07F006FA99
:1031A0000EA807C827AB07C34FF07C5227A90BA86E
:1031B00007F0FCF90BA807C82AAB07C32AA92E9869
:1031C000283007F00CF92E98D0E90823C169403067
:1031D0000EC02E9A34322E99103111A807F002FA3F
:1031E00011A807C81BAB07C31BA90EA81A9A07F0A2
:1031F000DDF90EA807C81EAB07C34FF07C521EA90D
:103200000BA807F0D3F90BA807C821AB07C321A966
:103210002E981C3007F0E3F82E98D0F8C0001390D9
:103220002E98C0691290139900F029FF2E99C86159
:103230002E98D0F8C40013902E98006A129013991B
:1032400000F01DFF01462E9801622E98D0F8C800AC
:1032500013902E98406A1290139900F010FF0146C7
:103260002E9841622E98D0E90523016934300EC0B2
:103270002FB000BDFCA9F1D24D62503F0000484381
:1032800038000020400000208DEDB5A0F7C6B03E0C
:10329000C0020020CC00002010B5044600231A46CE
:1032A000194604F1100007F082F800231A46194667
:1032B00004F11C0007F07BF800231A46194604F1BC
:1032C000280007F074F810BD10B50248FFF760FB46
:1032D00010BD00000006002010B50446FE49088815
:1032E000FE49098801F0AAFE10BD1CB50446FA4942
:1032F0000889694601F0FDFCF74948890DF1020192
:1033000001F0F7FCF449888901A901F0F2FCBDF84D
:10331000000000B2F2490881BDF8020001B2F04895
:103320004181BDF8040001B2ED4881811CBD1CB58E
:103330000446E9494888694601F0DBFCE64988888B
:103340000DF1020101F0D5FCE349C88801A901F0A3
:10335000D0FCBDF8000000B2E1494880BDF8020091
:1033600001B2DF488180BDF8040001B2DC48C180B1
:103370001CBD38B50446D849C889694601F0B9FC76
:10338000BDF8000007F0FEFE0546D64907F086FDB1
:10339000D5490860D049088A694601F0AAFCBDF801
:1033A000000007F0EFFE0546CE4907F077FDCE4955
:1033B0004860C949488A694601F09BFCBDF8000095
:1033C00007F0E0FE0546C94907F068FDC649886078
:1033D000C149888A694601F08CFCBDF8000007F0FD
:1033E000D1FE0546BF4907F059FDBF49C861BA493A
:1033F000C88A694601F07DFCBDF8000007F0C2FEF6
:103400000546B84907F04AFDB7490862B249088B3A
:10341000694601F06EFCBDF8000007F0B3FE0546FA
:10342000B24907F03BFDB0494862AB49488B694659
:1034300001F05FFCBDF8000007F0A4FE0546A949B5
:1034400007F02CFDA8498863A349888B694601F0E1
:1034500050FCBDF8000007F095FE0546A14907F0B5
:103460001DFDA149C8639C49C88B694601F041FC18
:10347000BDF8000007F086FE05469C4907F00EFDEA
:10348000994908649449088C694601F032FCBDF8FA
:10349000000007F077FE0546924907F0FFFC9249CD
:1034A000C1F8A8008C49488C694601F022FCBDF89F
:1034B000000007F067FE05468A4907F0EFFC8A49DD
:1034C000C1F8AC008449888C694601F012FCBDF853
:1034D000000007F057FE0546844907F0DFFC8249EB
:1034E000C1F8B0007C49C88C694601F002FCBDF807
:1034F000000007F047FE05467A4907F0CFFC7A49FD
:1035000048657549088D694601F0F3FBBDF8000078
:1035100007F038FE0546734907F0C0FC724988651C
:103520006D49488D694601F0E4FBBDF8000007F0E5
:1035300029FE05466D4907F0B1FC6B49C86566492F
:10354000888D694601F0D5FBBDF8000007F01AFE32
:103550000546644907F0A2FC634908675E49C88DC7
:10356000694601F0C6FBBDF8000007F00BFE0546FA
:103570005C4907F093FC5C4948675749088E6946E7
:1035800001F0B7FBBDF8000007F0FCFD0546574908
:1035900007F084FC5449886738BD10B504462046BE
:1035A000FFF7E7FE2046FFF7C2FE2046FFF79DFE2D
:1035B00010BD70B505464C4908684A4907F02AFE17
:1035C000064607F0A7FD84B24349C889214601F0A9
:1035D00035FD45494868434907F01CFE064607F09B
:1035E00099FD84B23C49088A214601F027FD3E49F5
:1035F00088683E4907F00EFE064607F08BFD84B250
:103600003549488A214601F019FD3749C8693549CD
:1036100007F000FE064607F07DFD84B22E49888A39
:10362000214601F00BFD3049086A2E4907F0F2FDF2
:10363000064607F06FFD84B22749C88A214601F08B
:10364000FDFC2949486A294907F0E4FD064607F0D0
:1036500061FD84B22049088B214601F0EFFC22492C
:10366000886B204907F0D6FD064607F053FD84B26B
:103670001949488B214601F0E1FC1B49C86B1949E7
:1036800007F0C8FD064607F045FD84B21249888B55
:10369000214601F0D3FC1449086C144907F0BAFD27
:1036A000064607F037FD84B20B49C88B214601F06E
:1036B000C5FC0D49D1F8A8000A4907F0ABFD064644
:1036C00007F028FD84B20449088C214601F0B6FCBD
:1036D0000549D1F8AC000BE066B7000854000020A3
:1036E000380700200000C8422001002000007A4472
:1036F0005E4907F08FFD064607F00CFD84B25C4979
:10370000488C214601F09AFC5A49D1F8B0005A4938
:1037100007F080FD064607F0FDFC84B25449888C12
:10372000214601F08BFC5349486D504907F072FD6A
:10373000064607F0EFFC84B24D49C88C214601F0E3
:103740007DFC4C49886D494907F064FD064607F049
:10375000E1FC84B24649088D214601F06FFC4549E1
:10376000C86D454907F056FD064607F0D3FC84B204
:103770003F49488D214601F061FC3E49086F3B49B5
:1037800007F048FD064607F0C5FC84B23849888D2D
:10379000214601F053FC3749486F344907F03AFDA0
:1037A000064607F0B7FC84B23149C88D214601F0C6
:1037B00045FC3049886F304907F02CFD064607F07C
:1037C000A9FC84B22A49088E214601F037FC70BD5D
:1037D00038B5044626490888694601F08AFABDF8DA
:1037E000000038BD10B504462046FFF7F1FF23491D
:1037F0000988884202D02046FFF7DBFE2046FFF70B
:10380000CCFE2046FFF768FD10BD10B504461C4AEB
:10381000528891B2164A508801F010FC184A9288DA
:1038200091B2134A908801F009FC154AD28891B2EE
:103830000F4AD08801F002FC10BD10B50446104AB2
:10384000128991B20A4A108901F0F8FB0C4A528998
:1038500091B2074A508901F0F1FB094A928991B26D
:10386000034A908901F0EAFB10BD00000000C84245
:1038700066B700082001002000007A4454000020B0
:10388000380700202DE9F05F04460E461746002158
:10389000A06807F0C5FB3AD00021384607F0C0FB0E
:1038A00035D0A06920F00041C1F1FF41C90F19B125
:1038B00000250020A06108E06169701A07F04AFC49
:1038C0008046394607F0EAFA05462846A16907F01E
:1038D00061FE82463946454807F06CFA83465946F0
:1038E000384607F0DBFA8146514607F093FC8046E4
:1038F000A16907F05FFA05466661A5612946A068DF
:1039000007F088FC804607F0BFFBBDE8F09F002071
:10391000FBE72DE9F04704460E4615460021606896
:1039200007F07EFB22D00021284607F079FB1DD04E
:10393000304607F00FFC8146616807F06BFC80465B
:10394000294607F067FC0746216907F033FA206132
:10395000E06880F0004702463946206900F039FBF4
:103960002061206907F090FBBDE8F0870020FBE7AD
:103970002DE9F04104460D46284607F0EBFB0746CB
:10398000216807F047FC064607F07EFBBDE8F081A2
:103990002DE9F04104460D46164629462046FFF71C
:1039A000E7FF0746324629462046FFF7B2FF0744A5
:1039B000324629462046FFF765FF3844BDE8F081CE
:1039C0002DE9F04104460D46164629462046FFF7EC
:1039D000CFFF0746324629462046FFF79AFF384474
:1039E000BDE8F08100210161704700000361023CE5
:1039F00030B50146002013E000FB00F2193A3223F3
:103A00005A4302F6C41242435A4340F6C41392FB8F
:103A1000F3F213B201F11C0222F81030421CD0B2B2
:103A20000728E9DB00202EE000EB80046400A4F10D
:103A300032020123002A00DD3223002A00DA322379
:103A4000002503FB03F495FBF4F4643454430A2586
:103A500094FBF5F404F5FA7425B201F12A0424F874
:103A6000105034F910404FF448756C434FF47A7598
:103A700094FBF5F404F24C4425B201F12A0424F835
:103A80001050421CD0B20C28CEDB30BD10B504461D
:103A90002046FFF7ADFF204610BD2DE9F05F04463C
:103AA000002060E034F81010A1F2DC51002904DDA0
:103AB00034F81010A1F2DC5104E034F8101040F298
:103AC000DC52511AB1F5FA7F10DA34F81010A1F275
:103AD000DC51002904DD34F81010A1F2DC5107E0BC
:103AE00034F8101040F2DC52511A01E04FF4FA7130
:103AF0000E4602281FD0642196FBF1F504F11C014B
:103B00006A1C31F9122031F91510511A05EBC50262
:103B100002EB0512A6EB82025143642291FBF2F202
:103B200004F11C0131F8151011440AB204F114011A
:103B300021F8102005E071420AB204F1140121F8C5
:103B4000102034F8101040F2DC52914209DA04F1EE
:103B5000140131F8101049420AB204F1140121F89D
:103B60001020411CC8B203289CDBE0884FF4FA62A5
:103B700040F2E24100F05CFA0646A6F2E2404FF461
:103B80007A71484340F2EE21B0FBF1F6642096FBD7
:103B9000F0F5BA48007B08BB04F12A00691C30F933
:103BA000111030F91500081A05EBC50101EB0511DC
:103BB000A6EB81014843642190FBF1F104F12A0056
:103BC00030F81500084401B26183E0884FF4FA62CE
:103BD00040F2E24100F02CFA01B26183B4F918001E
:103BE000002802DDB4F9180002E0B4F918004042E0
:103BF000462833DAE08840F2E24188422EDDA04ACE
:103C0000D2F8C812906807F0C5FC804607F03CFA6D
:103C100007B217F1B40F02DC07F5B47007B2B42F86
:103C200002DBA7F5B47007B2784207B2384607F056
:103C300091FA83469348016F584607F0EBFA8146A4
:103C4000B4F9180007F086FA8246494607F0A2FC4C
:103C5000804607F019FA01B2218304E088488068A1
:103C60008749C1F8C802BDE8F09F0146002034E052
:103C700031F81020B2F5617F04DB31F81020B2F585
:103C8000FA6F00DD2BE031F8102040F2E2439A4257
:103C900007DA7D4A125C7D4B1B781A437B4B1A7006
:103CA00006E0794A135C794A12789A43774B1A7086
:103CB00031F81020B2F5E16F07DD754A125C734BE5
:103CC0001B781A43714B1A7006E0714A135C6F4AF5
:103CD00012789A436D4B1A70401C0428C8DB00BF51
:103CE0006A4A12784AB16B4A1278FA2A0ADA694AA1
:103CF0001278521C674B1A7004E00022654B1A7050
:103D0000624B1A70634A1278642A29D15B4A527A4C
:103D10006AB15E4A127802F01002E2B15B4A127890
:103D200002F04002BAB10023544A537213E0574ADA
:103D3000127802F0200272B1544A127802F0400266
:103D40004AB14E4A127A1AB101234C4A537202E028
:103D50000122514B5A7000224C4B1A704D4B1A7075
:103D600070474E490989002947DD4C49098940F6C9
:103D70003402914241DA4949098900290CDD474959
:103D8000098940F21452914206DA00213D4AC2F8F4
:103D90006811C2F8601130E040490989B1F5AF6F90
:103DA00012DD3E490989B1F5C86F0DDA354991F840
:103DB000401121B10121334AC2F868111DE00121EF
:103DC000304AC2F8601118E03449098940F2A4620F
:103DD000914212DD3149098940F6340291420CDAF0
:103DE000284991F8401121B10221264AC2F86811F0
:103DF00003E00221234AC2F86011284949890029B9
:103E000036DD2649498940F63402914230DA2349A9
:103E1000498900290DDD2149498940F21452914216
:103E200007DA0121174AC2F85C110021C2F85811C3
:103E30001EE01A494989B1F5AF6F09DD1749498973
:103E4000B1F5C86F04DA01210E4AC2F858110FE02B
:103E50001249498940F2A462914209DD0F4949891A
:103E600040F63402914203DA0221064AC2F85811A0
:103E7000704700B50948FFF709FE00BDCC000020DF
:103E8000C0020020200100205EB70008570000207B
:103E900062B700085600002038070020EC0600201A
:103EA00010B53748FCF79AFC3548FDF7B6F910BD58
:103EB00010B53448FEF7C8F93248FEF7CCFA32485C
:103EC000FDF77CFF3148FEF7F3FD10BD10B52E481D
:103ED000FDF7D1FD10BD10B52B48FEF7CBF810BD96
:103EE00010B52B48FFF7D9FD2948FFF7BEFE28483B
:103EF000FFF737FF2248FDF769FB2648FCF75FF91B
:103F00002148FEF77BF810BD10B523480088012832
:103F100004DBFFF7C5FF00201F4908801E484088CA
:103F2000022804DBFFF7C4FF00201B4948801A4821
:103F30008088052804DBFFF7C9FF00201649888028
:103F40001548C0880A2804DBFFF7C5FF0020124986
:103F5000C88011480089142804DBFFF7C1FF002046
:103F60000D49088110BD00210181C18081804180FF
:103F70000180704700B50848FFF7F5FF00BD00005D
:103F8000DC000020C00200202001002000060020EC
:103F9000EC060020CC0000202E07002010B50446BF
:103FA000204605F054F908B1002010BD4FF07E51B5
:103FB000204607F0FBF901D87C48F6E77C4920460B
:103FC00007F0F4F801D87B48EFE7204605F0A2FAA5
:103FD000EBE72DE9F04106460C461546304605F064
:103FE00036F950B12946204606F0E4FE07464FF068
:103FF0007C5107F00FF9BDE8F0812146304607F00B
:10400000D5F801D22046F6E72946304607F0CEF92A
:1040100001D22846EFE73046EDE703468B4201DA4E
:1040200008467047934201DD1046FAE71846F8E764
:1040300003468B4201DA08467047934201DD104681
:10404000FAE71846F8E703468B4201DA084670475C
:10405000934201DD1046FAE71846F8E7002801DD33
:10406000024600E042428A4201DA002006E00028CF
:1040700001DD401A02E0002800DA0844704770B5FC
:1040800004460D460021204607F090F901D2204653
:1040900001E084F000400646294607F087F801D287
:1040A000002414E00021204607F080F905D22946BB
:1040B000204607F06FFA044609E00021204607F089
:1040C00075F804D22946204606F074FE04462046C0
:1040D00070BD10B504463849204607F09BF810BD66
:1040E00010B504463549204607F094F810BD10B5C8
:1040F00004462146204607F08DF810BD2DE9F04119
:1041000005460C462046FFF7F2FF07462846FFF714
:10411000EEFF8046394606F04DFE064606F052F8A0
:10412000BDE8F0812DE9F05F06460C4615462846AD
:10413000FFF7DDFF81462046FFF7D9FF8246304674
:10414000FFF7D5FF8346514606F034FE80464946C8
:1041500006F030FE074606F035F8BDE8F09F2DE981
:10416000FE4F07460C4615461E463046FFF7BFFF7A
:1041700002902846FFF7BBFF01902046FFF7B7FFEC
:1041800000903846FFF7B3FF8346009906F012FE11
:104190008246019906F00EFE8146029906F00AFE5B
:1041A000804606F00FF8BDE8FE8F0000DB0FC93F28
:1041B000000080BFDB0FC9BF34FA8E3CE12E6542A0
:1041C00070B5044694E80F00FFF7C9FF054629467D
:1041D000206806F063FE20602946606806F05EFEF7
:1041E00060602946A06806F059FEA0602946E06894
:1041F00006F054FEE06070BD2DE9F04F85B0044636
:104200000D46A168084607F005F80746D4E9020103
:1042100007F000F880466168084606F0FBFF81461B
:10422000D4E9010106F0F6FF8246E168606806F015
:10423000F1FF0490D4E9000106F0ECFF0390A168BF
:10424000206806F0E7FF0290E168206806F0E2FFD0
:104250000190E168084606F0DDFF009038460099BD
:1042600006F0A8FD83464FF0804106F0D3FF0646D6
:104270004FF07E5107F0FCF828605046019907F096
:1042800089F906464FF0804106F0C4FF6860029944
:10429000049806F08FFD06464FF0804106F0BAFF05
:1042A000A8605046019906F085FD06464FF0804112
:1042B00006F0B0FFE8604846009906F07BFD8346B3
:1042C0004FF0804106F0A6FF06464FF07E5107F002
:1042D000CFF828614046039907F05CF906464FF095
:1042E000804106F097FF68610299049807F052F93F
:1042F00006464FF0804106F08DFFA86140460399C5
:1043000006F058FD06464FF0804106F083FFE86155
:104310003946484606F04EFD83464FF0804106F090
:1043200079FF06464FF07E5107F0A2F8286205B0EB
:10433000BDE8F08F2DE9F04704460D46A1682068DE
:1043400006F068FF0746E168606806F063FF804694
:10435000394607F01FF906464FF0804106F05AFF34
:104360002860D4E9020106F055FF0746D4E90001B0
:1043700006F050FF8046394606F01CFD06464FF019
:10438000804106F047FF6860A168084606F042FFDA
:1043900080466168084606F03DFF8146414606F0CA
:1043A00009FD07464FF0804106F034FF06464FF006
:1043B0007E5107F05DF8A860BDE8F08770B58CB05D
:1043C00006460C4603AD284605F0ECFF054605F110
:1043D0000C0005F0E7FFA0F10C0505F1180005F051
:1043E000E1FFA0F1180500BFA06880F00040A060C8
:1043F00003A93046FFF700FF224603A9684606F0EE
:104400000BF89DE8070084E80700A06880F00040F2
:10441000A0600CB070BD2DE9F04F8FB00446894606
:104420009246504606F09AFCCDE90801D9F80810EA
:10443000E06806F0EFFE0490D9F80410A06806F0DA
:10444000E9FE0390606880F000400190D9F8001008
:1044500006F0E0FE0290039907F09CF88346049969
:1044600007F098F8059006F079FC07460022F74B14
:1044700006F08CFACDE90601DDE9082306F086FA9C
:1044800005460E46206806F069FC2A463346CDE90B
:104490000A0106F031F9CDE90C0106F0FBF82060C5
:1044A000504606F05BFCCDE90601D9F80410E0683F
:1044B00006F0B0FE0490D9F80810A06806F0AAFE35
:1044C0000390D9F80010206806F0A4FE029003992A
:1044D00006F070FC8346049907F05CF8059006F03E
:1044E0003DFC07460022D94B06F050FA0546DDE9AF
:1044F000062306F04BFACDE90A01606806F02EFCAF
:10450000CDE90801DDE90A2306F0F6F8CDE90C0152
:1045100006F0C0F86060504606F020FCCDE90801C6
:10452000D9F80010E06806F075FE0490D9F808107C
:10453000606806F06FFE0390D9F80410206806F05A
:1045400069FE0290039907F025F88346049906F066
:1045500031FC059006F002FC0022BC4BCDE90601BF
:1045600006F014FA0746DDE9082306F00FFACDE954
:104570000A01A06806F0F2FB0546DDE90A2306F011
:10458000BBF8CDE90C0106F085F8A060504606F0B6
:10459000E5FBCDE90601D9F80010A06806F03AFE67
:1045A0000390D9F80410606806F034FE8346D9F809
:1045B0000810206806F02EFE5946029006F0FAFB1D
:1045C0008046039906F0E6FF074606F0C7FB05465E
:1045D00000229E4B06F0DAF9CDE90401DDE906235D
:1045E00006F0D4F9CDE90A01E06806F0B7FBCDE9A1
:1045F0000801DDE90A2306F07FF8CDE90C0106F099
:1046000049F8E0600FB0BDE8F08F2DE9F04F85B0BC
:1046100004460D4616461F464FF07C51284606F0CC
:10462000F9FD824605F038F980464FF07C5130465E
:1046300006F0F0FD824605F02FF981464FF07C51DF
:10464000384606F0E7FD824605F026F904904FF063
:104650007C51284606F0DEFD824605F0EDFC039015
:104660004FF07C51304606F0D5FD824605F0E4FC63
:1046700002904FF07C51384606F0CCFD824605F0A2
:10468000DBFC0190DDE9021006F0C4FD0090019909
:1046900006F0C0FD82464946404606F0BBFD00904C
:1046A000049906F0B7FD8346514606F083FB20606F
:1046B0004046029906F0AEFD0090019906F0AAFD71
:1046C00082464946039806F0A5FD0090049906F03D
:1046D000A1FD8346514606F05DFF606049460398A0
:1046E00006F098FD0090019906F094FD8246404640
:1046F000029906F08FFD0090049906F08BFD834629
:10470000514606F057FBA060DDE9021006F082FD7D
:104710000090049906F07EFD82464946404606F028
:1047200079FD0090019906F075FD8346514606F02B
:1047300031FFE06005B0BDE8F08F2DE9FE4F044683
:104740000D4616461F468DB3A168084606F062FD69
:1047500001906168084606F05DFD0090019906F041
:1047600029FB83464FF0804106F054FD82464FF00E
:104770007E5106F07DFE8146D4E9020106F04AFD35
:104780008346D4E9000106F045FD5946019006F044
:1047900011FB82464FF0804106F03CFD49460290F5
:1047A00004F04CFF8046FFF79BFC2860C6B1E1682F
:1047B000606806F02FFD8346A168206806F02AFD98
:1047C0005946029006F0E6FE82464FF0804106F020
:1047D00021FD8146FFF7E2FB8046FFF781FC306058
:1047E0008FB36168084606F015FD01902168084600
:1047F00006F010FD0090019906F0DCFA83464FF0B8
:10480000804106F007FD82464FF07E5106F0C2FE61
:104810000290E168206806F0FDFC8346D4E90101BE
:1048200006F0F8FC5946019006F0B4FE82464FF0BF
:10483000804106F0EFFC8146029904F0FFFE8046BD
:10484000FFF74EFC3860BDE8FE8F00000000E03F3F
:1048500000B585B0684602F0C8FF50490098B0FB2B
:10486000F1F04F49086005B000BD4E480068401C9B
:104870004C4908604C480088401C4B490880084659
:104880004088401C488008468088401C8880084634
:10489000C088401CC88008460089401C08817047B9
:1048A00000BF404801684FF0E02082693D48006841
:1048B0008142F6D13A48006800EB4003C3EBC010D8
:1048C000C2EBC000364B1B68B0FBF3F001EB4103B9
:1048D000C3EBC11300EBC300704730B50446FFF7CC
:1048E000DFFF054600BFFFF7DBFF401BA042FAD306
:1048F00030BD10B5044603E04FF47A70FFF7EDFFCA
:104900002000A4F10104F7D110BD70B54FF4407040
:1049100001F01EFEFFF79CFF244800684FF47A72F6
:10492000B0FBF2F1481EB0F1807F00D31BE0481EBF
:104930004FF0E022506150170F22002807DA1307CA
:104940001D0E1B4B00F00F04241F1D5503E0130721
:104950001C0E184B1C5400BF00204FF0E022906149
:104960000720106100BF00F084FB01F017FC51220A
:104970000421114801F0D3F945F6C05001F016FBAF
:104980004FF4165001F0ACFC00F056FD00F094F826
:1049900002F0BDF900F0CDFA70BD000040420F00FA
:1049A000580000205C0000202E070020B8000020E6
:1049B00018ED00E000E400E0B807002008B5012190
:1049C000084602F072FF01214FF4017002F07AFFF5
:1049D0001020ADF8000000208DF803006946614802
:1049E00002F0B4FC08BD00B591B05F4802F046F893
:1049F0005E4806905E4807900020089001200990CC
:104A000000200A9080200B9040000C9080000D90B8
:104A100020200E9000020F900020109006A952480E
:104A200002F0CEF80121504802F0F5F80020019084
:104A30008DF8080001208DF809004FF460200390E4
:104A40000020049001208DF8140001A947484C383B
:104A500001F013FE4FF4404002F098FE05230122BE
:104A6000042142484C3801F0A0FE01213F484C3857
:104A700001F03AFE01213D484C3801F02AFE3B4846
:104A80004C3801F048FE00BF38484C3801F048FE71
:104A90000028F9D135484C3801F04CFE00BF3348AE
:104AA0004C3801F04CFE0028F9D101212F484C3838
:104AB00001F04FFE11B000BD10B5FFF77FFFFFF70B
:104AC00092FF10BD2DE9F84F2948008806F05AFBE7
:104AD000009006F043F90646264A274B05F056FF9C
:104AE00004460D462548006806F038F90646244A73
:104AF000244B05F04BFF804622462B4605F0FCFD7B
:104B0000824605F0C7FD1D4908604FF08B411B48E8
:104B1000006806F0C3F9824606F020F906464FF019
:104B20006632194B05F032FF804600224FF0804379
:104B300005F02CFF044605F0ADFD14490860084659
:104B4000006806F00BF904460022114B05F0E2FE66
:104B500003D201210F48417302E000210D48417347
:104B6000BDE8F88F00080140080002404C240140D5
:104B700060000020FCA9F1D24D62603F640000207B
:104B8000560E2DB29DEFEF3F66660A40680000208A
:104B900000000C40CC000020034606210622F74806
:104BA0000188F7480288ABB1012B1BD13AB94EF608
:104BB000EE60814201D1002070470120FCE739B945
:104BC0004EF6EE60824201D10120F5E70020F3E7C6
:104BD000AB20F1E709B90020EEE70AB90120EBE7C5
:104BE000AB20E9E70020E7E770B5042600240120A8
:104BF000FFF7D2FF0446AB2C06D1E04800EB84203F
:104C0000E0490860AB2070BDDC4800EB8420DD4942
:104C10000860601CD949891E01EB80250CE0D94849
:104C200000680068401C10B904263046EBE7D54800
:104C30000068001DD3490860D2480068A842EED33E
:104C40008020E0E710B50424CC4802F0A5F8044623
:104C5000042C01D0204610BD0021C84802F09FF965
:104C60000446042C01D02046F5E7C54802F094F82C
:104C700004462046EFE72DE9F04104460F4604259F
:104C80000026DFF804830120FFF786FF0646AB2EDF
:104C900001D1BDE8F081701CB849891E01EB802864
:104CA00021E0B84800680068401CB8B93946B548EA
:104CB000006802F074F90546042D01D02846E8E7A3
:104CC0002146B0480068801C02F069F90546AD48ED
:104CD0000068001DAB4908602846DAE7A94800686B
:104CE000001DA8490860A74800684045D9D3802026
:104CF000CFE72DE9F04706460F46002545F2555807
:104D00004FF001099D4CA2460020FFF745FF0546E4
:104D1000AB2D01D1BDE8F087984800EB852A994872
:104D20000068841E0AE0B4F80080B04505D134F86C
:104D3000020C38804FF0000904E0241F0AF1020041
:104D40008442F0D800BF4846E4E72DE9F0474FF031
:104D5000060A062600250027A8464FF0FF39874897
:104D6000B0F800A0864806885FEA0A0075D0A0F572
:104D70006E40EE3858B3A0F58850113800286DD138
:104D800046B97E4802F008F80446042C1ED020469E
:104D9000BDE8F0874EF6EE60864210D1774801F00C
:104DA000FBFF0446042C01D02046F1E700217448A3
:104DB00002F0F5F80446042C08D02046E8E7FFF797
:104DC00041FF0446042C01D02046E1E7AEE07EBB63
:104DD000002522E06948C0886C4931F815108842E6
:104DE00001D10FFA85F94D4515D0684931F8150004
:104DF0006749FFF77EFF8046B8F1010F0BD063498A
:104E000031F8150062490988FFF735FF0746042F7E
:104E100001D03846BCE7681C85B2192DDADB0021C9
:104E2000564802F0BCF80446042C02D02046AFE7F6
:104E300007E0534801F0B0FF0446042C1FD0204681
:104E4000A6E74FF6FF70864212D14D4801F0A4FF4D
:104E50000446042C03D020469AE711E05EE00021CE
:104E6000464802F09CF80446042C08D020468FE700
:104E7000FFF7E8FE0446042C01D0204688E755E001
:104E800036B9FFF7DFFE0446042C46D020467FE704
:104E90004FF6FF70864207D1394801F07DFF044686
:104EA000042C3AD0204673E7002523E03448801DC7
:104EB0000088364931F81510884201D10FFA85F97A
:104EC0004D4515D0314931F815003149FFF711FF33
:104ED0008046B8F1010F0BD02C4931F815002C4950
:104EE0000988FFF7C8FE0746042F01D038464FE770
:104EF000681C85B2192DD9DB0021214802F04FF83A
:104F00000446042C01D0204642E71C4801F044FF2F
:104F10000446042C01D020463AE707E0FFF792FE52
:104F20000446042C01D0204632E700BF00BF042015
:104F30002EE710B5FFF709FF0446FFF755FE2046A0
:104F400010BD2DE9F84F074689460425DFF830A04B
:104F5000AAF1010A094800904FF000080024002639
:104F60004FF0000B0020FFF717FE8046B8F1010F4D
:104F700010D1DFF808A00248009016E000000108F8
:104F80000004010870000020FF07010866B7000850
:104F90006C000020B8F1000F04D1DFF8C4A0314844
:104FA000009002E0AB20BDE8F88F4EF6EE6150466F
:104FB00001F0F5FF0546042D01D02846F3E7FFF781
:104FC00013FE49463846FFF756FE0646042E01D02A
:104FD0003046E8E700241CE0234830F81400B842CB
:104FE00015D0214931F814002049FFF782FE83468D
:104FF000BBF1010F0BD01C4931F814001B49098883
:10500000FFF739FE0646042E01D03046CBE7601C80
:1050100084B2192CE0DB009801F0BEFE0546042D99
:1050200001D02846BFE70021504601F0B8FF0546F1
:10503000042D01D02846B6E72846B4E770B50546EA
:105040000E46002431462846FFF715FE0446802C04
:1050500004D131462846FFF774FF0446204670BD50
:10506000000401080000010866B700086C00002079
:10507000704708B50121082002F024FC4020ADF85B
:10508000000003208DF8020014208DF8030069460B
:10509000E84802F05BF98020ADF8000003208DF8AD
:1050A000020014208DF803006946E24802F04EF930
:1050B00008BD704700B501464020DE4A143210603A
:1050C0000846FFF7F6FF8020DA4A143210600846DF
:1050D000FFF7EFFF4020D74A103210600846FFF775
:1050E000E8FF8020D34A103210600846FFF7E1FF46
:1050F00000BD00B501464020CE4A1432106008467B
:10510000FFF7D7FF8020CB4A103210600846FFF728
:10511000D0FF4020C74A103210600846FFF7C9FF91
:10512000C4480830006800F0800040B14020C14A07
:10513000143210600846FFF7BCFF002000BD40207D
:10514000BC4A143210600846FFF7B3FF0120F5E7B0
:1051500010B5024608231DE04020B64C14342060F0
:105160001046FFF7A6FF01F0800018B18020241F31
:10517000206003E08020AF4C143420604806010E0C
:105180001046FFF796FF4020AA4C103420601046CE
:10519000FFF78FFF1800A3F10104E3B2DCD1402038
:1051A000A44C1434206010BD00B501468020A14AF3
:1051B00010321060402010600846FFF77AFF9D48CB
:1051C0000830006808B9012000E0002000F08000ED
:1051D00008B1002000BD8020964A143210600846B5
:1051E000FFF767FF93480830006800F0800008B1BF
:1051F0000020EFE780208F4A143210600846FFF746
:1052000058FF0120E6E7F0B506460F4614461D4656
:105210003046FFF7C9FF08B90020F0BD39463046D7
:10522000FFF796FF3046FFF764FF20B93046FFF7DF
:1052300041FF0020F1E721463046FFF789FF304665
:10524000FFF757FF29463046FFF782FF3046FFF74A
:1052500050FF3046FFF72EFF0120DEE700B5014684
:105260004020744A143210600846FFF722FF802065
:10527000704A103210600846FFF71BFF40206D4A4D
:10528000103210600846FFF714FF4020694A1432BC
:1052900010600846FFF70DFF00BD10B50246082359
:1052A00000218020634C1034206016E04806010E77
:1052B0004020604C143420601046FFF7FAFE402076
:1052C000241F20601046FFF7F4FE5A48083000689B
:1052D00000F0800008B141F001011800A3F10104C1
:1052E000E3B2E3D14020534C14342060084610BD93
:1052F000F0B506460C4615463046FFF755FF08B98F
:105300000020F0BD21463046FFF722FF3046FFF770
:10531000F0FE20B93046FFF7CDFE0020F1E7294628
:105320003046FFF715FF3046FFF7E3FE3046FFF744
:105330003BFF601CC1B23046FFF70AFF3046FFF763
:10534000D8FE3046FFF7A9FF07463046FFF786FF35
:105350003046FFF7AFFE3846D3E700B501464020A0
:10536000344A143210600846FFF7A3FE8020314A09
:10537000143210600846FFF79CFE40202D4A103280
:1053800010600846FFF795FE40202A4A143210604C
:105390000846FFF78EFE00BD2DE9F04381460E461C
:1053A00017461C46DDF81C80B8F1010F02DA002018
:1053B000BDE8F0834846FFF7F7FE08B90020F7E79D
:1053C00031464846FFF7C4FE4846FFF792FE20B933
:1053D0004846FFF76FFE0020EAE739464846FFF7E8
:1053E000B7FE4846FFF785FE4846FFF7DDFE701C16
:1053F000C1B24846FFF7ACFE4846FFF77AFE0125EA
:1054000009E04846FFF749FF04F8010B4846FFF75B
:10541000A4FF681CC5B24545F3DB4846FFF73DFFD6
:1054200004F8010B4846FFF719FF4846FFF742FE14
:105430000120BDE7000C014008B50121102002F059
:1054400041FA10208DF803004FF4C040ADF8000081
:1054500003208DF802006946114801F077FF08BD6E
:1054600010B504464FF480410D4802F01CF810BD01
:1054700010B504464FF40051094802F014F810BD6D
:1054800010B504464FF48041054802F00EF810BDF7
:1054900010B504464FF40051014802F006F810BD63
:1054A0000010014010B504462046FFF7E1FD044618
:1054B000A01C04F0A8FF841E04F1080004F0A3FF60
:1054C000A0F1080404F11C0004F06CFFA0F11C041E
:1054D00004F1280004F066FFA0F1280404F1340070
:1054E00004F060FFA0F13404204610BD30B503463F
:1054F000C822002007E000BF1400A2F10105AAB2F3
:10550000FAD1441CE0B28842F5DB30BD2DE9F04110
:1055100007460D4616462A2E15D006DC052E0CD061
:105520000A2E0CD0142E16D10BE0622E0DD0BC2EFC
:105530000DD0B6F5807F0ED10BE006240DE00524DA
:105540000BE0042409E0032407E0022405E0012421
:1055500003E0002401E0022400BF00BF80236B228F
:10556000D0213846FFF74FFE05213846FFF7BEFF32
:105570004FF47A7090FBF5F0401E00F0FF084346B0
:105580001922D0213846FFF73EFE03236B22D0219B
:105590003846FFF738FE02233722D0213846FFF77E
:1055A00032FE23461A22D0213846FFF72CFE18235C
:1055B0001B22D0213846FFF726FE10231C22D021C3
:1055C0003846FFF720FEBDE8F0812DE9F0410446A2
:1055D000207800286AD0EA48007800F0010048B935
:1055E000E74803F04DFE28B1E64804F0DBFEE4484E
:1055F000AFF30080E448008880B900231A461946BA
:10560000A01C04F005FF00231A461946DD4804F0EB
:10561000CEFE0120DC490880BDE8F08104F11C01C8
:10562000D84804F0DCFED8480088C82839D1D648CC
:10563000008805F0A7FD0646D2490868314605F006
:105640002DFC054605F020FD00B26080CE480088A4
:1056500005F098FD0646CB494868314605F01EFC2A
:10566000054605F011FD01B2A180C748008805F08C
:1056700089FD0746C3498868394605F00FFC064690
:105680004FF08B4105F086FF054605F0FDFC01B2A9
:10569000E1800020BC4908802070BC48FEF7B5F8C6
:1056A000BAE7B9480088401CB749088000BFB3E793
:1056B0002DE9FC4104463C22D0212046FFF718FE8C
:1056C000A0733B22D0212046FFF712FEE073A17B9E
:1056D000E07B41EA00206188401A00B2ADF800008A
:1056E0003E22D0212046FFF703FE20743D22D02128
:1056F0002046FFF7FDFD6074217C607C41EA0021BB
:10570000A088081A00B2ADF802004022D02120463D
:10571000FFF7EEFDA0743F22D0212046FFF7E8FD01
:10572000E074A17CE07C41EA0021E088081A00B224
:10573000ADF80400BDF9040005F00CFD0546BDF907
:10574000020005F007FD0646BDF9000005F002FD68
:1057500007462B463246394604F11C0004F027FE6A
:105760002046FFF732FFBDE8FC8170B50446607843
:1057700000286ED08648007800F0010048B98448BF
:1057800003F07EFD28B1834804F00CFE8048AFF39F
:1057900000808148008880B900231A46194604F128
:1057A000080004F035FE00231A461946794804F033
:1057B000FEFD01207849088070BD04F1280175487C
:1057C00004F00DFE74480088C8283DD17248008856
:1057D00005F0D8FC06466F490868314605F05EFBC7
:1057E000054605F051FC00B220816B48008805F0A9
:1057F000C9FC064667494868314605F04FFB054637
:1058000005F042FC01B261816348008805F0BAFCF2
:10581000064660498868314605F040FB054605F0BC
:1058200033FC01B2A18100205B49088060705B48B5
:10583000007A28B90121594841720120574908725C
:105840005248FDF7FAFFB7E753480088401C524919
:10585000088000BFB0E72DE9FC4104464422D02176
:105860002046FFF745FD20754322D0212046FFF753
:105870003FFD6075217D607D41EA00202189401A4D
:1058800000B2ADF800004622D0212046FFF730FDDF
:10589000A0754522D0212046FFF72AFDE075A17DA5
:1058A000E07D41EA00216089081A00B2ADF80200EB
:1058B0004822D0212046FFF71BFD20764722D02129
:1058C0002046FFF715FD6076217E607E41EA0021CB
:1058D000A089081A00B2ADF80400BDF9040005F073
:1058E00039FC0546BDF9020005F034FC0646BDF959
:1058F000000005F02FFC07462B463246394604F1DE
:10590000280004F054FD2046FFF72FFFBDE8FC817E
:1059100010B5D1E90834CA6980E81C0010BD10B583
:10592000D1E90B348A6A80E81C0010BD0FB470B551
:1059300005460C461A49069805F06CFC0646FEF72B
:10594000C8FB60631649079805F064FC0646FEF73D
:10595000C0FBA0631249089805F05CFC0646FEF700
:10596000B8FBE063D4E90E12606B85E8070070BCF9
:105970005DF814FB10B50B48FFF794FD10BD000057
:1059800078000020780700207C00002052000020D2
:10599000800000208407002084000020CC0000202C
:1059A0008DC1793D3807002010B5044601235822E7
:1059B000EE212046FFF727FC10BD7CB505460020F0
:1059C00001900026002418E002200090A02000EBA7
:1059D0004400C2B201ABEE212846FFF7DDFC3044A3
:1059E000C6B29DF805009DF8041040EA012105F1BA
:1059F000100020F81410601CC4B2082CE4DB082E40
:105A000001D101207CBD0020FCE710B50446012334
:105A10001E22EE212046FFF7F6FB10BD10B504460E
:105A20000A20FEF766FF2046FFF7EFFF0320FEF790
:105A300060FF2046FFF7C1FF2046FFF7B5FF10BD0E
:105A400010B5044601234822EE212046FFF7DBFB78
:105A500010BD38B50446032004F120030022EE21D6
:105A600000902046FFF798FC38BD2DE9F04F8BB031
:105A700004464FF00008C14694F82000010421209C
:105A8000005D41EA00202221095D0843A06094F8EE
:105A9000230001042420005D41EA00202521095D46
:105AA0000843E060608BA168A1EB0025A08A000498
:105AB0000022218B4FEAE57CA1FB05BE02FB05E33A
:105AC00001FB0C334FEADB1141EA4361401842EB22
:105AD000E312CDE90802608A4FEAC0304246E18A0B
